:020000022000DC
:10700000000004207D9E0200A59E0200A79E0200B3
:10701000A99E0200AB9E0200AD9E0200000000008F
:10702000000000000000000000000000AF9E020011
:10703000B19E020000000000B39E0200B59E020057
:10704000D9CA0200B79E02004DD402006D6703004A
:10705000B79E0200B79E02002DD10200B79E02002B
:10706000B79E0200E1FA0200F5650300B79E020038
:10707000B79E0200B79E0200B79E0200B79E0200B4
:10708000B79E020055A70200B79E0200B79E0200FD
:10709000B79E0200D1E20200C91A0300B79E0200A7
:1070A000B79E0200B79E02004D660300A56603006E
:1070B000B79E0200C1D402000000000000000000E2
:1070C000B79E0200B79E0200B79E020045D602009E
:1070D000FD620300B79E0200B79E0200B79E020049
:1070E000B79E0200991C0300B79E0200000000003A
:1070F00000000000B79E020000000000CDD5020095
:10710000000000000000000000000000000000007F
:10711000000000000000000000000000000000006F
:10712000000000000000000000000000000000005F
:10713000000000000000000000000000000000004F
:10714000000000000000000000000000000000003F
:10715000000000000000000000000000000000002F
:10716000000000000000000000000000000000001F
:10717000000000000000000000000000000000000F
:1071800000000000000000000000000000000000FF
:1071900000000000000000000000000000000000EF
:1071A00000000000000000000000000000000000DF
:1071B00000000000000000000000000000000000CF
:1071C00000000000000000000000000000000000BF
:1071D00000000000000000000000000000000000AF
:1071E000000000000000000000000000000000009F
:1071F000000000000000000000000000000000008F
:1072000010B5054C237833B9044B13B10448AFF3E0
:1072100000800123237010BD582F002000000000C3
:10722000988E030008B5034B1BB103490348AFF325
:10723000008008BD000000005C2F0020988E030035
:10724000A3F5803A704700BF174B002B08BF134BC4
:107250009D46FFF7F5FF00218B460F461348144A61
:10726000121A00F063F80E4B002B00D098470D4B1C
:10727000002B00D098470020002104000D000D488D
:10728000002802D00C48AFF3008000F02BF820005B
:10729000290007F005FF00F011F800BF000008000A
:1072A000000000000000000000000420582F002013
:1072B00010E40020000000000000000008B5074BAB
:1072C000044613B10021AFF30080054B1868836AB0
:1072D00003B19847204602F0CFFD00BF0000000038
:1072E000047E030070B50D4D0D4C641BA4100026E8
:1072F000A64209D10B4D0C4C10F078FD641BA41074
:107300000026A64205D170BD55F8043B98470136CA
:10731000EEE755F8043B98470136F2E7002F0020CE
:10732000002F0020002F0020042F002002440346DD
:10733000934200D1704703F8011BF9E72DE9FF479D
:1073400055EC104B002D0E4619462B46BBBF05F1E0
:1073500000431D4600232D230B700D9BDDF830A04C
:10736000914623F02008BCBF22461446B8F1460FD0
:1073700005D0B8F1450F00D10136022100E003210C
:1073800003AB019302AB009345EC104B53463246DE
:1073900000F0D2FCB8F1470F074602D119F0010FF7
:1073A00022D0B8F1460F07EB060910D13B78302BFD
:1073B0000AD1002200232046294610F02BFB18B9E1
:1073C000C6F10106CAF80060DAF8003099440022DC
:1073D00000232046294610F01DFB08B1CDF80C9083
:1073E0003022039B4B4507D3039B0E9ADB1B384689
:1073F000136004B0BDE8F087591C03911A70F0E7E0
:10740000F7B503460029B8BF494203F8022BB4BFC1
:107410002D222B22092942702ADD0DF10704A446F2
:107420000A27A6460A4691FBF7F607FB16153035E4
:10743000632A04F1FF340EF8015C3146F1DC30318F
:10744000AEF1020504F8011C441C294661450AD32B
:107450000DF10902A2EB0E02654588BF002213441C
:10746000181A03B0F0BD11F8012B04F8012FEDE755
:10747000302330318370C170031DF1E72DE9F04FE7
:107480002DED028B8DB00C46DDF8608016461F4650
:10749000054601F03DFAD0F800A0504600F0B8FBD8
:1074A00000230A9323680593D8F8003094F818B0A5
:1074B000073323F0070303F10802C8F80020D3E9DB
:1074C0000023C4E91223D4E9128929F00043079369
:1074D000CDF8188008EE100A9F4BDDE906014FF049
:1074E000FF3210F0C9FA88BBDDE906019A4B4FF074
:1074F000FF3210F0A3FA48BB002200234046494661
:1075000010F092FA10B12D2384F84330934B944835
:10751000BBF1470F94BF9846804603232361059B28
:1075200023F0040222604FF00009009733460BAAB3
:107530002146284600F0D8F9013040F090804FF005
:10754000FF300DB0BDEC028BBDE8F08F42464B46DC
:107550004046494610F090FA40B14B46002BBCBF64
:107560002D2384F843307F487F4BD1E763680BF0CD
:10757000DF0206925A1C3FD106236360059B6168B7
:1075800043F48062002303930AABCDE901B309AB56
:1075900049EC108B009322600DF123032846FFF77E
:1075A000CDFE069B0999472B804608D1C81C02DBFB
:1075B0006368994241DDABF1020B5FFA8BFBBBF1D3
:1075C000650F20D801395A4604F150000991FFF7A0
:1075D00017FF0A9A1318012A8146236102DC2268E8
:1075E000D20701D5013323619DF82330002B9CD0B5
:1075F0002D2384F8433098E7069A472ABED1002B02
:10760000BCD10123B9E7BBF1660F18D1002963682B
:107610000BDD216113B92268D00702D501330B4479
:107620002361A1654FF00009DEE713B92268D20794
:1076300001D50233F4E70123F2E74FF0670B0A9B11
:10764000994205DB23682161D807EAD54B1CE7E79F
:107650000029D4BFC1F1020201221344E0E72368EC
:107660005A0507D42369424631462846B8470130B7
:107670002CD164E7BBF1650F40F2E080D4E9120140
:107680000022002310F0C6F9002834D0374A012325
:1076900031462846B84701303FF451AFDDE90923B0
:1076A0009A4202DB2368D80710D518EE103A5246EA
:1076B00031462846B84701303FF441AF4FF000084B
:1076C00004F11A090A9B013B434509DC23689B0727
:1076D00000F10581E0680B9B9842B8BF184630E77F
:1076E00001234A4631462846B84701303FF427AFC8
:1076F00008F10108E6E7099B002B39DC1B4A01234E
:1077000031462846B84701303FF419AFDDE9092377
:10771000134302D12368D907D8D518EE103A524640
:1077200031462846B84701303FF409AF4FF0000911
:1077300004F11A0A099B5B424B4501DC0A9B92E764
:107740000123524631462846B84701303FF4F7AE90
:1077500009F10109EEE700BFFFFFEF7F087E03009C
:107760000C7E0300147E0300107E0300187E0300CD
:107770000A9AA36D9A42A8BF1A46002A914637DC9E
:107780004FF0000B29EAE97904F11A02A36D059381
:10779000A3EB09035B4533DCDDE909239A423BDBBC
:1077A0002368DA0738D40A9A059B0999D31AA2EB01
:1077B00001099945A8BF9946B9F1000F35DC4FF092
:1077C000000829EAE97904F11A0ADDE909239B1A7C
:1077D000A3EB090343457FF779AF012352463146B6
:1077E0002846B84701303FF4AAAE08F10108ECE79B
:1077F0001346314642462846B8470130C0D19EE67E
:107800000123314628460592B84701303FF497AE30
:10781000059A0BF1010BB9E718EE103A52463146C2
:107820002846B8470130BED189E6059A4B46424406
:1078300031462846B8470130C1D180E60A9A012A6C
:1078400001DCDB0738D50123424631462846B847DC
:1078500001303FF474AE18EE103A524631462846D5
:10786000B84701303FF46BAED4E912010022002387
:1078700010F0D0F8D8B90A9B08F10102013B31465B
:107880002846B84701300ED159E601235246314609
:107890002846B84701303FF452AE08F101080A9B70
:1078A000013B4345F1DC4B4604F15002DCE64FF06E
:1078B000000804F11A0AF2E701234246DFE7012338
:1078C0004A4631462846B84701303FF438AE08F101
:1078D0000108E3680B995B1A4345F0DCFAE64FF0C8
:1078E000000804F11909F4E72DE9F0471646994616
:1078F0008A680B69DDF820809342B8BF1346336075
:1079000091F8432007460C460AB1013333602368DF
:10791000990642BF336802333360256815F00605C7
:1079200006D104F1190AE36832689B1AAB4226DCDF
:1079300094F84320131E226818BF012392062BD40B
:1079400004F1430249463846C04701301ED023683F
:10795000E568326803F00603042B08BFAD1AA3687C
:1079600022690CBF25EAE57500259342C4BF9B1A26
:10797000ED1800261A34B5421AD1002008E0012380
:10798000524649463846C047013003D14FF0FF30D8
:10799000BDE8F0870135C6E7E1185A1C302081F8B0
:1079A0004300224494F8451082F843100233C7E79D
:1079B0000123224649463846C0470130E6D0013609
:1079C000D9E700002DE9FF470C469146277E0C9928
:1079D000782F80469A4604F1430207D8622F0AD8CE
:1079E000002F00F0D880582F00F0A38004F1420649
:1079F00084F842703AE0A7F16303152BF6D801A092
:107A000050F823F05D7A0200717A0200ED790200ED
:107A1000ED790200ED790200ED790200717A020041
:107A2000ED790200ED790200ED790200ED790200B6
:107A30007D7B0200A17A02005F7B0200ED790200EB
:107A4000ED7902009F7B0200ED790200A17A02002D
:107A5000ED790200ED790200677B02000B681A1DC8
:107A60001B680A6004F1420684F842300123A3E057
:107A7000256808682E0600F104030AD505680B6026
:107A8000002D03DA2D236D4284F843305E480A232B
:107A900019E015F0400F05680B6018BF2DB2EFE735
:107AA0000B682568181D0860280601D51D6802E0CE
:107AB0006906FBD51D8854486F2F0CBF08230A2385
:107AC000002184F843106668A660002EA2BF2168DA
:107AD00021F0040121600DB9002E4DD01646B5FBF2
:107AE000F3F103FB1157C75D06F8017D2F46BB423A
:107AF0000D46F4D9082B0BD12368DF0708D523697D
:107B000061689942DEBF302306F8013C06F1FF367A
:107B1000921B2261CDF800A04B4603AA21464046A5
:107B2000FFF7E2FE01304CD14FF0FF3004B0BDE86A
:107B3000F087354884F8457023680E681F0656F8AC
:107B4000045B0E6014D5D90744BF43F020032360C3
:107B50001DB9236823F0200323601023B0E72368B6
:107B600043F0200323607823284884F84530E3E776
:107B70005E0648BFADB2E6E71646BBE70B6826686F
:107B800060691D1D0D6035061B6801D5186002E097
:107B90007106FBD51880002323611646BAE70B68EF
:107BA0001A1D0A601E6862680021304600F0C0FE9F
:107BB00008B1801B606063682361002384F8433050
:107BC000A8E72369324649464046D0470130ABD04A
:107BD00023689B0713D4E068039B9842B8BF1846FC
:107BE000A4E70123324649464046D04701309BD0A6
:107BF0000135E36803995B1AAB42F2DCEBE7002541
:107C000004F11906F5E700BF1A7E03002B7E03007E
:107C1000034613F8012B002AFBD1181A01387047CC
:107C20002DE9F74F03690C69A3420746C0F2818032
:107C3000013C01F1140800F1140505EB84030193E4
:107C400058F8243055F8242001339A424FEA840B27
:107C500008EB8409B2FBF3F631D34FF0000E404637
:107C6000AC46F24650F8042B93B206FB03E34FEA0E
:107C7000134E9BB2AAEB0303120CDCF800A006FB28
:107C800002E213FA8AF34FEA124E1FFA82FADCF884
:107C90000020CAEB124202EB23429BB243EA0243AA
:107CA00081454CF8043B4FEA224ADBD255F80B30B1
:107CB0002BB9019B043B9D421A462ED33C613846AA
:107CC00001F012F9002824DB013628464FF0000CA1
:107CD00058F8042BD0F800E093B2ACEB0303120C7D
:107CE00013FA8EF3C2EB1E4202EB23429BB243EA2D
:107CF0000243C14540F8043B4FEA224CE8D255F814
:107D0000242005EB840322B9043B9D421A460AD382
:107D10003C61304603B0BDE8F08F1268043B002A96
:107D2000CCD1013CC7E71268043B002AF0D1013CEA
:107D3000EBE70020EEE700002DE9F04F2DED028B80
:107D400057EC106B95B0456ADDF880800591CDE960
:107D50000267044609920F9375B9102000F0DCFD0C
:107D60000246606220B9B24BEA21B24801F086FABD
:107D7000C0E901550560C560636A196851B15A6868
:107D80004A60012393408B60204600F06FFE636AD7
:107D900000221A603B1EB9BF23F000430393002367
:107DA000C8F80030DDF80C90A34BBCBF0122C8F826
:107DB000002033EA09031BD10F9A42F20F731360BC
:107DC000C9F31303334300F07A85219B63B99B4BBE
:107DD00024E09B4B00930833219A1360009815B060
:107DE000BDEC028BBDE8F08F944B00930333F3E7B7
:107DF0009DED027B002251EC170B00238DED0A7BD9
:107E00000FF008FE804658B10F9A01231360219BA2
:107E1000002B00F051858B481860431E0093DDE76E
:107E20009DED0A0B12AA13A9204601F001F9C9F32E
:107E30000A558346002D7CD00B9BCDF84080C3F3C0
:107E40001303DDE90A6743F07F5747F44017A5F2B3
:107E5000FF357D4B0022304639460FF0BBF96EA34B
:107E6000D3E900230FF06EFB6DA3D3E900230FF0DD
:107E7000B3F9064628460F460FF0FAFA6AA3D3E98B
:107E800000230FF05FFB02460B46304639460FF0E9
:107E9000A3F906460F460FF005FE00228246002396
:107EA000304639460FF0C0FD48B150460FF0E0FAB9
:107EB00032463B460FF0AEFD08B90AF1FF3ABAF17F
:107EC000160F54D8614B03EBCA03D3E90023DDE955
:107ED0000A010FF0A9FD00284BD00AF1FF3A002358
:107EE0000E93129B5D1B6B1E049343BF0023C5F1D1
:107EF000010804934FF00008BAF1000F3BDB049B2C
:107F0000CDF834A05344049300230693059B092B1A
:107F100069D8052BC4BF043B0593059BA3F102035D
:107F2000CCBF00250125032B69D8DFE803F02C4ED8
:107F30004C5ADDE912531D4405F23243202BC1BFD8
:107F4000C3F1400305F2124009FA03F326FA00F0E8
:107F5000DABFC3F1200306FA03F018430FF078FAF2
:107F600001230646A1F1F877013D109371E7012343
:107F7000B6E70E90B5E7CAF1000306930023A8EB1D
:107F80000A080D93C2E700230893099B002B39DCF4
:107F90004FF00109CDF804904B46CDF82490606A6B
:107FA00000224260042202F114069E4241682FD949
:107FB000204600F01BFD009000284BD1244B0246C8
:107FC0004FF4D571D1E60123DEE700230893099B26
:107FD0000AEB030909F10103012B0193B8BF012347
:107FE000DDE70123F2E701250023059308954FF013
:107FF000FF390022CDF8049012230992CFE7012324
:108000000893F4E7DDF82490CDF804904B46C6E7DA
:10801000013141605200C6E761436F63A787D23FD9
:10802000B3C8608B288AC63FFB799F501344D33F67
:10803000497E0300607E03000000F07F457E030060
:108040003C7E0300197E03000000F83F507F0300D0
:10805000B97E0300636A009A1A60019B0E2B00F23E
:10806000AD80002D00F0AA80BAF1000F36DDC34AC2
:108070000AF00F0302EBC30393ED007B1AF4807F39
:108080004FEA2A17B0EE478AF0EE678A16D0BC4B4B
:10809000DDE90A01D3E908230FF07EFBCDE90201F7
:1080A00007F00F070325B64E57B9DDE9020153EC7F
:1080B000182B0FF071FBCDE9020129E00225F2E750
:1080C000F90708D551EC180BD6E900230FF03AFA5E
:1080D00041EC180B01357F100836E5E700F0A6806B
:1080E000CAF10006A54BA64F06F00F0203EBC20330
:1080F000D3E90023DDE90A010FF024FACDE90201FA
:10810000361100230225002E40F08580002BD2D1AD
:108110000E9B002B00F08C80DDE90267994B00225A
:10812000304639460FF080FC002800F08180019B2A
:10813000002B7DD0B9F1000F3CDD0AF1FF3307932E
:108140000022914B304639460FF0FCF9CDE902018F
:108150000135CDF83090DDE9026728460FF088F947
:1081600032463B460FF0EEF9884B00220FF034F810
:10817000A1F15073CDE9020103930C9B002B5CD15C
:10818000834B0022304639460FF024F8DDE9022304
:1081900006460F460FF066FC002840F09682DDE9A7
:1081A0000221304601F1004339460FF03DFC002822
:1081B00040F08882DDE90A23CDE90223139B002BDE
:1081C000C0F25881BAF10E0F00F354816B4B03EBF0
:1081D000CA03D3E90089099B002B80F2E380019B4D
:1081E000002B00F3DF8040F06D82694B0022404697
:1081F00049460FF0A7F9DDE902230FF029FC019EA3
:108200003746002840F04382009D312305F8013BAA
:108210000AF1010A3FE2F20705D5D7E900230FF082
:1082200091F901350123761008376CE702256FE7D5
:10823000019BCDF81CA00C938DE700990C980C9A2B
:108240004E4B9DED027B014402910899B0EE478AA6
:10825000F0EE678A03EBC20353E90223002945D0FD
:108260004C4900200FF098FA53EC182B0EF0B2FF97
:10827000009D41EC180B394630460FF013FC0C9072
:108280000FF0F6F802460B46304639460EF0A2FFD4
:108290000C9B303305F8013B53EC182B06460F4678
:1082A0000FF0C2FB002865D132463B46354900201D
:1082B0000EF090FF53EC182B0FF0B6FB002840F0A7
:1082C000B980029B9D423FF475AF2F4B51EC180BC8
:1082D00000220FF037F92C4B41EC180B00223046EE
:1082E00039460FF02FF906460F46C4E751EC170B3D
:1082F0000FF028F9029B009D0C9341EC180B3946B6
:1083000030460FF0CFFB11900FF0B2F802460B464B
:10831000304639460EF05EFF119B303305F8013BC5
:10832000029B9D4206460F464FF0000234D1194B86
:1083300051EC180B0EF050FF02460B463046394602
:108340000FF090FB002875D153EC182B1149002039
:108350000EF040FF02460B46304639460FF064FBF4
:1083600000283FF427AF0C9D6B1E0C9315F8013CC1
:10837000302BF8D0DDF81CA04AE000BF507F03008E
:10838000287F03000000F03F0000244000001C4054
:10839000000014400000E03FAF4B0FF0D3F806465A
:1083A0000F46ACE7DDE90267009D42464B4630468A
:1083B00039460FF0F1F90FF075FB02900FF058F805
:1083C00042464B460FF0BEF802460B463046394651
:1083D0000EF000FF029E019F303605F8016B009EF3
:1083E000AE1BB74202460B4637D10EF0F5FE4246B1
:1083F0004B4606460F460FF035FBC8B942464B4682
:10840000304639460FF006FB10B1029BD9070FD456
:108410002046594600F02AFB00232B700F9B0AF1DF
:1084200001001860219B002B3FF4D8AC1D60D5E4FF
:10843000CDF81CA02B461D4613F8012D392A08D172
:10844000009A9A42F7D1079A009901320792302296
:108450000A701A7801321A708CE77F4B00220FF0F5
:1084600071F80022002306460F460FF0D3FA0028C9
:108470009BD0CDE7089A002A00F0C480059A012A13
:1084800000F3A880109A002A00F0A08003F2334382
:10849000069E4546049A01211A44204698440492B7
:1084A00000F0A0FB0746002D0BDD049B002B08DD30
:1084B000AB42049AA8BF2B46A8EB0308ED1AD31AC7
:1084C0000493069BFBB1089B002B00F09F80002EBD
:1084D00011DD39463246204600F040FC5A4601463E
:1084E0000746204600F094FB59460790204600F0CE
:1084F000BDFA079B9B46069B9A1B04D05946204613
:1085000000F02CFC83460121204600F06BFB0D9B04
:10851000002B06467CDD1A460146204600F01EFC74
:10852000059B012B064676DD00230693336906EB97
:108530008303186900F006FBC0F12000049B184477
:1085400010F01F0000F08680C0F12003042B7FDDB7
:10855000C0F11C00049B0344804405440493B8F11B
:10856000000F05DD59464246204600F051FC834687
:10857000049B002B05DD31461A46204600F048FCDE
:1085800006460E9B002B69D03146584600F0ACFCE5
:10859000002863DA002359460A22204600F088FAB0
:1085A000089B0AF1FF3A8346002B00F08F81394681
:1085B00000230A22204600F07BFAB9F1000F07469B
:1085C00000F38E80059B022B50DC89E0129BC3F1E7
:1085D00036035DE7019B5E1E069BB342BFBF069B51
:1085E0000696F21A0D9BB6BF9B189E1B0D93019B1E
:1085F000B8BF0026002BB5BFA8EB0305019B0023E5
:10860000454647E7069E089F45464CE7069A75E7AC
:10861000059B012B18DC029BB3B9039BC3F3130327
:10862000A3B9039B23F000431B0D1B052BB1049B37
:108630000133049308F10108012306930D9B002BDD
:108640007FF474AF012079E70023F6E7029BF4E79B
:1086500085D018461C307DE700002440019B002B8C
:1086600038DC059B022B35DDDDF80490B9F1000FF5
:108670000DD131464B460522204600F019FA01463D
:108680000646584600F030FC00283FF7BDAD099B78
:10869000009D6FEA030A4FF000083146204600F0C3
:1086A000E5F9002F3FF4B4AEB8F1000F05D0B8459E
:1086B00003D04146204600F0D9F93946204600F063
:1086C000D5F9A5E600263746E1E70C9EDDF81CA0AB
:1086D000374699E5089BDDF80490002B00F0FD80FB
:1086E000002D05DD39462A46204600F091FB07465D
:1086F000069B002B5CD07968204600F077F9054690
:1087000028B9804B024640F2EA21FFF72EBB3A69B6
:108710000232920007F10C010C3000F059F90122ED
:108720002946204600F074FB009B01330193009B17
:108730004B440793029B03F00103B8460693074698
:10874000019B3146013B58460293FFF769FA034605
:108750003033049041465846089300F0C5FB3A4632
:1087600081463146204600F0DBFBC268089B054687
:1087700002BB0146584600F0B7FB089B024629465B
:108780002046CDE9083200F071F9059B099A019D58
:1087900043EA0201069B0B43089B0DD1392B29D0DC
:1087A000B9F1000F01DD049B3133029A137074E7B5
:1087B0003846B9E70122E2E7B9F1000F06DB059977
:1087C00041EA0909069959EA010120D1002AECDDA4
:1087D000594601222046019300F01AFB3146834698
:1087E00000F082FB0028019B02DCDED1DA07DCD539
:1087F000392BD8D1029A392313702B461D46013BE1
:1088000015F8012C392A50D001321A7045E7002A98
:1088100003DD392BEED00133C7E7019A079902F83F
:10882000013C8A422AD0594600230A22204600F001
:108830003FF9B84583464FF000034FF00A02414626
:10884000204607D100F034F980460746019B0133EA
:10885000019375E700F02CF93946804600230A227F
:10886000204600F025F90746F0E7B9F1000F009A1D
:10887000CCBF4D46012515444FF000085946012252
:108880002046019300F0C4FA3146834600F02CFBE9
:108890000028B2DC02D1019BDB07AED42B461D467B
:1088A00013F8012D302AFAD0F7E6009A9A42A5D1A2
:1088B0000AF1010A312379E7134BFFF7AFBA219B85
:1088C000002B7FF486AA114BFFF7A8BAB9F1000F6D
:1088D00003DC059B022B3FF7C9AE009D314658468D
:1088E000FFF79EF900F1300305F8013B009AAA1A40
:1088F0009145BADD594600230A22204600F0D8F8F7
:108900008346EBE7B97E0300187E03003C7E03003C
:10891000004870479C2D0020024B0146186800F06B
:1089200043BC00BF482C00200000000000000000F5
:1089300001F0FF01102A2BDB10F0070F08D010F810
:10894000013B013A8B422DD010F0070F42B3F6D114
:10895000F0B441EA012141EA014122F007047FF02D
:1089600000070023F0E80256083C85EA010586EA84
:10897000010685FA47F5A3FA87F586FA47F6A5FAC0
:1089800087F68EB9EED1F0BC01F0FF0102F00702CC
:1089900032B110F8013B013A83EA010313B1F8D177
:1089A0000020704701387047002D06BF3546033858
:1089B000073815F0010F07D1013015F4807F02BF91
:1089C000013015F4C03F0130F0BC0138704700BFE2
:1089D0000A44914200F1FF3300D1704710B511F8FD
:1089E000014B03F8014F9142F9D110BD70B5466AB1
:1089F00004460D4676B91020FFF78EFF02466062EE
:108A000020B9184B1848662100F038FCC0E901660F
:108A10000660C660666AF36883B1636ADB6853F810
:108A20002500B8B9012101FA05F6721D9200204611
:108A300000F05AFB60B1C0E901560EE0212204218A
:108A4000204600F051FB636AF060DB68002BE4D144
:108A5000002070BD026843F825200023C0E90333DD
:108A6000F7E700BF497E0300CA7E030070B5466A7F
:108A700005460C4676B91020FFF74EFF02466862A5
:108A800020B9094B09488A2100F0F8FBC0E90166CA
:108A90000660C6603CB16B6A6268DB6853F82210FE
:108AA000216043F8224070BD497E0300CA7E030066
:108AB0002DE9F0410E69074698460C4601F1140075
:108AC00000230568A9B202FB01814FEA114C2D0C6D
:108AD00002FB05C589B2013301EB05419E4240F816
:108AE000041B4FEA1548ECDCB8F1000F22D0A36854
:108AF000B34219DC616838460131FFF777FF05465C
:108B000028B902460D4B0E48B52100F0B7FB22698B
:108B1000023204F10C0192000C30FFF759FF21469C
:108B20003846FFF7A3FF2C4604EB86030136C3F853
:108B3000148026612046BDE8F08100BFB97E0300A5
:108B4000CA7E0300030C1B04D3B90004102310F0E9
:108B50007F4F04BF0002083310F0704F04BF0001C4
:108B6000043310F0404F04BF80000233002805DBBF
:108B700010F0804F03F1010308BF2023184670470F
:108B80000023E4E7036813F0070201460BD0DA077D
:108B900024D4980749BF5B089B0801200B605CBF89
:108BA0000B600220704798B2B0B91B0C102013F074
:108BB000FF0F04BF1B0A08301A0704BF1B0904304B
:108BC0009A0704BF9B080230DA0703D45B0800F160
:108BD000010005D00B6070471046E8E700207047A1
:108BE0002020704710B50C460121FFF7FFFE02461A
:108BF00028B9054B05484FF4A07100F03FFB012355
:108C00004461036110BD00BFB97E0300CA7E03004A
:108C10002DE9F04F14460A6923699A42B8BF0B4602
:108C20000D46BCBF25461C46D5F810A0D4F81090C0
:108C3000AB6869680AEB0907BB4285B0B8BF013170
:108C4000FFF7D4FE30B90246424B434840F25D1173
:108C500000F014FB00F1140606EB870833460022EF
:108C600043451ED305F1140C04F114030CEB8A0CDC
:108C700003EB89020292ACEB0502153A22F00302E3
:108C8000043205F115018C4538BF04220192029A85
:108C900003939A4208D8002F55DC076105B0BDE860
:108CA000F08F43F8042BDBE7B3F800A0BAF1000F14
:108CB00020D005F1140EB14600225EF8044BD9F81D
:108CC00000B0A1B21FFA8BFB0AFB01B11144D9F825
:108CD0000020240C120C0AFB042404EB114489B27A
:108CE00041EA0441F44549F8041B4FEA1442E4D830
:108CF00001997250039AB2F802900433B9F1000F4F
:108D00001FD0346805F11401B6464FF0000A0A88F6
:108D1000BEF802B009FB02B29244A4B244EA0A448B
:108D20004EF8044B51F8044BBEF80020240C09FB0C
:108D3000042404EB1A448C454FEA144AE7D8019AFC
:108D4000B4500436A3E758F8043D002BA5D1013FE9
:108D5000A1E700BFB97E0300CA7E03002DE9F843F6
:108D6000154612F0030206460F4607D0254C013A7D
:108D7000002354F82220FFF79BFE0746AD103DD09C
:108D8000746A7CB91020FFF7C7FD0246706228B9EB
:108D90001D4B1E484FF4D77100F070FAC0E9014432
:108DA0000460C460D6F82480D8F808404CB940F27A
:108DB00071213046FFF716FF0023C8F8080004466B
:108DC00003604FF00009EB070AD5394622463046CA
:108DD000FFF71EFF394680463046FFF747FE4746FD
:108DE0006D100BD0206838B9224621463046FFF777
:108DF0000FFF2060C0F800900446E4E73846BDE865
:108E0000F88300BF18800300497E0300CA7E030078
:108E10002DE9F0470C464968236903EB6218A36803
:108E2000074691464FEA621A08F10106B3420BDB8E
:108E30003846FFF7DBFD054648B90246284B29486E
:108E400040F2D91100F01AFA01315B00EEE700237D
:108E500000F1140100F110021846534533DB20697C
:108E60002AEAEA7A04F1140319F01F0901EB8A01D6
:108E700003EB800C2BD0C9F1200E8A460022186823
:108E800000FA09F002434AF8042B53F8042B9C45DE
:108E900022FA0EF2F3D8ACEB0403153B23F00303E4
:108EA000043304F11500844538BF0423CA500AB1C5
:108EB00008F10206013E38462E612146FFF7D6FD35
:108EC0002846BDE8F08742F8040F0133C5E70439AE
:108ED00053F8042B41F8042F9C45F9D8EAE700BF6A
:108EE000B97E0300CA7E030030B502690C69121B0B
:108EF0000ED100F11403143103EB840001EB840163
:108F000050F8045D51F8044DA54203D005D3012269
:108F1000104630BD8342F3D3FAE74FF0FF32F7E754
:108F20002DE9F84F0C460646114620461746FFF736
:108F3000DBFF051E10D129463046FFF757FD30B93B
:108F4000394B024640F23221384800F097F90123AC
:108F5000C0E90435BDE8F88FA4BF3B46274630463C
:108F60007968A6BF1C4600250125FFF73FFD20B903
:108F70002D4B02464FF41071E6E73E69C560256946
:108F800007F1140104F1140900F1140E07F11002A5
:108F900001EB860C09EB8505F246002759F8043BE6
:108FA00052F804BF1FFA83F817FA8BF71B0CA7EBD4
:108FB0000808C3EB1B4303EB28431FFA88F81F1470
:108FC0004D4548EA03434AF8043BE7D82B1B153BC1
:108FD00023F0030304331534A54238BF0423194496
:108FE00073449E460D4665450ED30CF10302521A9A
:108FF00022F0030203398C4538BF00221A4452F88C
:10900000043D7BB10661A5E755F8048B17FA88F497
:10901000221402EB1842A4B244EA02444EF8044B74
:109020001714E0E7013EEAE7B97E0300CA7E0300B9
:109030002DE9F7438946012157EC106B9046FFF765
:10904000D5FC044630B90246254B264840F20A3189
:1090500000F014F9C7F30A55C7F3130335BB002E0C
:10906000019328D068460096FFF78CFD009900B365
:10907000019AC0F1200302FA03F30B43C24063617B
:109080000192019BA361002B14BF022201222261E5
:10909000D5B1A5F233450544C9F80050C0F13500FB
:1090A000C8F80000204603B0BDE8F08343F4801305
:1090B000D5E76161E5E701A8FFF764FD019B636106
:1090C000012222612030E3E704EB8203A0F2324068
:1090D000C9F800001869FFF735FDC0EB4210DFE763
:1090E000B97E0300CA7E030013B54A4311460192BC
:1090F00000F05AF8044618B1019A0021FEF716F95B
:10910000204602B010BD000037B5002948D051F804
:10911000043C0190002BA1F10404B8BFE41800F056
:10912000EFF8204A01981368154633B9636014605C
:1091300003B0BDE8304000F0E9B8A3420BD9216884
:109140006218934204BF1A685B68636004BF5218D8
:1091500022602C60ECE71A465B680BB1A342FAD997
:1091600011685518A5420BD1246821445418A34214
:109170001160DDD11C685B68536021441160D7E742
:1091800002D90C230360D3E7256861198B4204BF21
:1091900019685B68636004BF491921605460C7E7C0
:1091A00003B030BD742F0020F8B5CD1C25F00305A9
:1091B00008350C2D38BF0C25002D064601DBA942D1
:1091C00003D90C2333600020F8BD00F099F8214941
:1091D0000A6814469CB9204F3B6823B921463046A3
:1091E00000F03CF838602946304600F037F8431C60
:1091F00023D10C233360304600F088F8E3E723687E
:109200005B1B17D40B2B03D923601C44256004E09F
:109210006368A2420CBF0B605360304600F076F8E2
:1092200004F10B00231D20F00700C21ACCD01B1A3A
:10923000A350C9E722466468CCE7C41C24F00304A9
:10924000A042E3D0211A304600F008F80130DDD109
:10925000CFE700BF742F0020782F002038B5064DCF
:109260000023044608462B6000F0F0FD431C02D1A9
:109270002B6803B1236038BDF4E300201FB514460A
:109280001A46094B1B680546D8684CB1074B00913C
:10929000CDE9013406492B4600F00EF800F06EFAD5
:1092A000044B1C46F3E700BF482C00202480030039
:1092B000318003005F8003000EB403B5014603ABA9
:1092C000054853F8042B0068019300F04FF802B0F2
:1092D0005DF804EB03B07047482C002082B001B960
:1092E00001A942B14BB113780B601278101E18BF60
:1092F000012002B070471046FBE76FF00100F8E76D
:10930000014800F0FBBB00BFFCE30020014800F077
:10931000F6BB00BFFCE300209368013B002B10B4B8
:10932000936008DA9469A34201DB0A2903D15DF84E
:10933000044B00F055B91368581C106019700846AA
:109340005DF8044B7047F8B506460F461446D5182D
:10935000AC4201D1002007E014F8011B3A46304628
:10936000FFF7DAFF431CF3D1F8BD00002DE9F04F01
:109370000D469DB014469846064618B183690BB950
:1093800000F01EFB894B9D421BD175686B6ED9079F
:1093900005D4AB899A0502D4A86D00F0AFFBAB8968
:1093A0001B0701D52B69EBB92946304600F078F947
:1093B000C0B16B6EDC070ED54FF0FF301DB0BDE8BD
:1093C000F08F7B4B9D4201D1B568DFE7794B9D4221
:1093D00008BFF568DAE7AB899805EDD4A86D00F011
:1093E0008EFBE9E70023099320238DF82930CDF87F
:1093F0000C803023DFF8C0818DF82A304FF001094E
:1094000023469A4613F8012B0AB1252AF9D1BAEB63
:10941000040B0BD05B46224629463046FFF793FFEC
:10942000013000F0AA80099A5A4409929AF8003053
:10943000002B00F0A28000234FF0FF32CDE905237E
:109440000AF1010A049307938DF853301A93544696
:10945000052214F8011B5848FFF76AFA049AD8B994
:10946000D10644BF20238DF85330130744BF2B236C
:109470008DF853309AF800302A2B15D0079A5446AD
:1094800000204FF00A0C214611F8013B303B092B1C
:109490004ED9B0B1079214E0A0EB080309FA03F328
:1094A00013430493A246D2E7039B191D1B68039143
:1094B000002BBBBF5B4242F0020207930793B8BF89
:1094C000049223782E2B0CD163782A2B35D1039B61
:1094D0001A1D1B680392002BB8BF4FF0FF330234F4
:1094E0000593DFF8E4A0217803225046FFF720FA25
:1094F00040B14023A0EB0A0003FA00F0049B0343B1
:109500000134049314F8011B2C488DF8281006220E
:10951000FFF70EFA00283FD0294B1BBB039B0733F4
:1095200023F0070308330393099B3B44099367E740
:109530000CFB02320C460120A5E700230134059301
:1095400019464FF00A0C204610F8012B303A092A30
:1095500003D9002BC5D00591C3E70CFB01210446BC
:109560000123F0E703AB00932A46164B04A93046CB
:10957000FDF784FF0746781CD6D16B6ED90705D45A
:10958000AB899A0502D4A86D00F0B9FAAB895B06E5
:109590003FF512AF099811E703AB00932A46094B38
:1095A00004A93046FEF70EFAE4E700BF9C810300F1
:1095B000BC8103007C8103006A8003007480030087
:1095C0007D740200479302007080030010F8012BA5
:1095D00011F8013B012A28BF9A42F7D0D01A7047F0
:1095E000F8B50E461446054618B183690BB900F06C
:1095F000E7F9214B9C422BD16C68A369A360A38936
:109600001A072FD523696BB323692068C01A6369D1
:10961000F6B28342374604DC2146284600F03CF986
:1096200030BBA368013BA36023685A1C22601E70F4
:1096300063690130834204D0A389DB0706D50A2E73
:1096400004D12146284600F027F988B93846F8BDEC
:109650000A4B9C4201D1AC68CFE7094B9C4208BF42
:10966000EC68CAE72146284600F01AF80028CBD05B
:109670004FF0FF37EAE700BF9C810300BC81030085
:109680007C81030049B1FF2A85BF8A2303600A70E9
:109690004FF0FF3098BF0120704708467047000028
:1096A000324B70B51D6806460C4625B1AB6913B93F
:1096B000284600F085F92E4B9C420FD16C68A38997
:1096C000B4F90C2019072CD4DD0611D4092333601A
:1096D00042F04003A3814FF0FF303EE0254B9C4217
:1096E00001D1AC68EBE7244B9C4208BFEC68E6E78D
:1096F000580712D5616B41B104F14403994202D07D
:109700003046FFF701FD00236363A38923F02403A0
:10971000A3810023636023692360A38943F00803C6
:10972000A38123694BB9A38903F42073B3F5007FA8
:1097300003D02146304600F007FAA089B4F90C2086
:1097400010F001030AD00023A36063695B42A361A8
:10975000236943B910F08000BAD170BD810758BFAA
:109760006369A360F4E70020F7E700BF482C0020FE
:109770009C810300BC8103007C81030008B50620A6
:1097800000F064FA012000F077FB00008A892DE9DF
:10979000F041054610070C4658D44B68002B05DCF9
:1097A0000B6C002B02DC0020BDE8F081E66A002E85
:1097B000F9D0002312F480522F682B6032D0606DF4
:1097C000A3895A0705D56368C01A636B0BB1236C74
:1097D000C01A00230246E66A216A2846B047431CA5
:1097E000A38906D129681D292CD82A4ACA40D60740
:1097F00028D500226260D9042269226004D5421C67
:1098000001D12B6803B96065616B2F600029CAD054
:1098100004F14403994202D02846FFF775FC00206A
:109820006063C1E7216A01232846B047411CC7D1C4
:109830002B68002BC4D01D2B01D0162B01D12F601B
:10984000B1E7A38943F04003A381ADE70F69002F7F
:10985000A9D093070E6808BF4B690F6018BF00239B
:10986000A6EB07088B60B8F1000F9CDD216AA66AA1
:1098700043463A462846B047002806DCA38943F011
:109880004003A3814FF0FF308EE70744A8EB0008A8
:10989000E9E700BF0100402038B50B6905460C46DA
:1098A00013B90025284638BD18B183690BB900F0FB
:1098B00087F8144B9C421BD16C68B4F90C30002B18
:1098C000EFD0626ED00704D4990502D4A06D00F0E9
:1098D00015F928462146FFF759FF636EDA0705465A
:1098E000E0D4A3899B05DDD4A06D00F008F9D9E789
:1098F000054B9C4201D1AC68DFE7044B9C4208BF9A
:10990000EC68DAE79C810300BC8103007C810300E2
:10991000002310B50446C0E90033C0E90433836076
:1099200081814366C2818361194608225C30FDF75C
:10993000FDFC054B6362054BA362054BE362054BDF
:109940002462236310BD00BF859C0200A79C020017
:10995000DF9C0200039D0200014900F0AFB800BF88
:109960009998020070B54A1E682555430E4605F1C8
:109970007401FFF719FC044640B10021C0E900164C
:109980000C30A06005F16802FDF7D0FC204670BDE8
:10999000014800F0B3B800BF00E40020014800F027
:1099A000AEB800BF00E40020014800F0A7B800BF37
:1099B000FBE30020014800F0A2B800BFFBE3002059
:1099C00010B50446FFF7F0FFA3691BB1BDE81040D6
:1099D000FFF7F0BFC4E912332365134B134A1B682A
:1099E000A262A34204BF0123A361204600F020F835
:1099F0006060204600F01CF8A060204600F018F8D7
:109A00000022E06004216068FFF782FFA068012265
:109A10000921FFF77DFFE06802221221FFF778FF9E
:109A20000123A361D2E700BF047E0300599902001D
:109A3000F8B50746FFF7ACFF1E4B1E68B36913B9B4
:109A40003046FFF7BDFF4836D6E90134013B03D568
:109A500033680BB33668F7E7B4F90C50D5B9164B39
:109A6000E36004F15800656600F047F8FFF796FFE1
:109A7000C4E90155C4E904552560A56108222946B9
:109A800004F15C00FDF752FCC4E90D55C4E9125520
:109A90002046F8BD6834D9E704213846FFF762FF55
:109AA000044630600028D5D1FFF778FF0C233B60D7
:109AB000EEE700BF047E03000100FFFF2DE9F8433D
:109AC0000646884600F148040027D4E90195B9F11B
:109AD000010905D52468002CF7D13846BDE8F88384
:109AE000AB89012B07D9B5F90E30013303D02946D4
:109AF0003046C04707436835E9E77047704770470D
:109B000070B50E46B1F90E10002996B014461D46E8
:109B100007DA00232B60B3891A0610D44FF4806350
:109B20000EE06A4600F014F90028F2DB019A02F414
:109B30007042A2F500535A425A412A60EEE7402390
:109B40000020236016B070BD8B8973B59D07064653
:109B50000C4607D504F147032360236101236361A9
:109B600002B070BD01AB6A46FFF7CAFF0099054617
:109B70003046FFF719FB48B9B4F90C309A05EFD419
:109B800023F0030343F00203A381E3E70D4BB36229
:109B9000A389206043F08003A381009B6361019B44
:109BA00020615BB1B4F90E10304600F0E3F828B143
:109BB000A38923F0030343F00103A381A089054394
:109BC000A581CDE759990200884210B501EB020446
:109BD00002D98442234607D8431EA14208D011F877
:109BE000012B03F8012FF8E7024401468A4200D115
:109BF00010BD13F8014D02F8014DF7E71F2938B5E4
:109C000004460D4604D9162303604FF0FF3038BDDB
:109C1000426C12B152F821304BB9204600F030F8B6
:109C20002A4601462046BDE8384000F017B8012B0F
:109C30000AD0591C03D1162303600120E7E7002452
:109C400042F82540284698470020E0E7024B0146AD
:109C50001868FFF7D3BF00BF482C002038B5074D68
:109C600000230446084611462B6000F0D7F8431C39
:109C700002D12B6803B1236038BD00BFF4E300209C
:109C800000F0BCB810B50C46B1F90E1000F094F815
:109C90000028ABBF636DA3891B1823F48053ACBFAE
:109CA0006365A38110BD2DE9F0411F468B89DB055B
:109CB00005460C46164605D5B1F90E1002230022C2
:109CC00000F068F8A389B4F90E1023F48053A3813F
:109CD00032463B462846BDE8F04100F017B810B5C3
:109CE0000C46B1F90E1000F055F8431CA38915BFBE
:109CF000606523F4805343F48053A38118BFA3818C
:109D000010BDB1F90E1000F013B8000038B5074DC2
:109D100004460846114600222A601A4600F0A4F8BC
:109D2000431C02D12B6803B1236038BDF4E300204B
:109D300038B5064D0023044608462B6000F04EF867
:109D4000431C02D12B6803B1236038BDF4E300202B
:109D500038B5074D00230446084611462B6000F035
:109D600045F8431C02D12B6803B1236038BD00BF06
:109D7000F4E3002038B5064D0023044608462B6066
:109D800000F044F8431C02D12B6803B1236038BDB6
:109D9000F4E3002038B5074D04460846114600227A
:109DA0002A601A4600F042F8431C02D12B6803B126
:109DB000236038BDF4E3002038B5074D044608465B
:109DC000114600222A601A4600F038F8431C02D1DE
:109DD0002B6803B1236038BDF4E30020024B582206
:109DE0001A604FF0FF307047F4E30020024B582216
:109DF0001A604FF0FF307047F4E30020024B582206
:109E00001A604FF0FF307047F4E30020024B5822F5
:109E10001A600020704700BFF4E30020024B582274
:109E20001A604FF0FF307047F4E30020024B5822D5
:109E30001A604FF0FF307047F4E30020024B5822C5
:109E40001A604FF0FF307047F4E30020044A0549E0
:109E50001368002B08BF0B46184410601846704763
:109E60007C2F002010E40020024B58221A604FF093
:109E7000FF307047F4E30020FEE700BF0649074AC1
:109E8000074B9B1A03DD043BC858D050FBDC02F0A3
:109E900033FBFDF7D9F90000B48F0300482C0020F4
:109EA000582F0020FEE7FEE7FEE7FEE7FEE7FEE7AD
:109EB000FEE7FEE7FEE7FEE700B585B003460021BA
:109EC00001AA44F20100CDE90111039300F004F866
:109ED00005B05DF804FB00BF72B6094B1B68DB07D9
:109EE00000D500BEBFF34F8F0649074BCA6802F486
:109EF000E0621343CB60BFF34F8F00BFFDE700BFAD
:109F0000F0ED00E000ED00E00400FA05D0E90223E6
:109F1000D1E90201994208BF90422CBF01200020E4
:109F2000704700BF10B5044682B000230DF1070052
:109F30008DF8073000F096FA23692BB94FF0FF3205
:109F40004FF0FF33C4E902239DF8070000F0B0FA98
:109F5000D4E90530984700230DF107008DF807304C
:109F600000F080FA2369B3B1D4E902014A1C08BFAA
:109F7000B0F1FF3F0FD0C01841F10001C4E9020168
:109F80009DF8070000F094FA0648214602F088FA8E
:109F9000012002B010BD9DF8070000F089FA0020F2
:109FA00002B010BDE08103002DE9F04F87B00646F6
:109FB00000F08EFB40B1AA4AD2E9003113F1807360
:109FC00041F10001C2E900310021304600F09CFB64
:109FD000A44C60B3236853B3A34B25681B7823B309
:109FE0001DB3A24800F0A0FB9D4BA149D3E900237B
:109FF000D1E90089121843F100034B4508BF4245DF
:10A0000003D212F1807243F10003D5E902018B42C1
:10A0100008BF824280F02081013108BFB0F1FF3FCC
:10A0200003D09448294602F03BFA00232360012123
:10A03000304600F069FB002840F0F2808E4805A908
:10A0400001F02CF978B38C4D4FF0FF384FF0FF3909
:10A050000BE0002B00F0958005A9284601F04EF991
:10A0600005A9284601F01AF9E8B10378012B11D0AF
:10A07000022BEED17F4F384602F026FA30B1C0E90C
:10A080000289384602F020FA0028F8D1764B0122E6
:10A090001A70E1E741682368994200F0B68075487C
:10A0A00002F01CFAD8E7DFF8CC81704FDFF8B091EE
:10A0B000404602F00FFA002859D0D0E90223591C7B
:10A0C00008BFB2F1FF3F58D0216891B12168D1E9B2
:10A0D00002018B4208BF82424CD22368D3E902239B
:10A0E000013308BFB2F1FF3F03D02168404602F0C0
:10A0F000D7F9404602F0E8F905463846AA68EB6809
:10A100000392029300F010FBD9E900AB584BD3E95E
:10A1100000231AEB000A4BF1000B9B4508BF924548
:10A12000DDE9023203D21AF1807A4BF1000BB2EB77
:10A130000A0163EB0B0301930091DDE900010128A3
:10A1400071F100032ADBB0F5350F58D24FF49603B6
:10A150000021384600F036FA00284AD00D2821D0D8
:10A1600000234046236002F0B5F90028A5D12368FA
:10A17000002B6DD007B0BDE8F08F404602F0A4F987
:10A1800096E74168D1E90223013308BFB2F1FF3FEE
:10A190003FF462AF374802F083F95DE700213846AB
:10A1A00000F0A6FA304B1B78002BD9D0384600F0CF
:10A1B000BBFAD9E900232E49D1E900AB121843F1CB
:10A1C00000035B4508BF524503D212F1807243F190
:10A1D0000003D5E902018B4208BF82421CD2013143
:10A1E00008BFB0F1FF3FBBD02946404602F058F906
:10A1F000B6E7236863B1256007B0BDE8F08F384645
:10A2000000F092FA1D4A0244A0E70023236023E7EE
:10A21000304600F0A9F9EEE72846FFF783FE9FE7F6
:10A220001248134D00F080FA0D4BD3E90089D5E9AF
:10A23000002318EB000849F10009994508BF904533
:10A2400003D218F1807849F10009C5E90089F5E6E3
:10A25000304600F08DF98DE72846FFF763FEE4E60F
:10A26000882F002008300020902F0020182E00207A
:10A2700000300020E0810300EC2F0020FFFFB4003D
:10A2800010B5134B13491B68134882B05822019331
:10A29000082300F0ADFF044610B1204602B010BD07
:10A2A0000E4A0F4801A900F01BF904460028F4D11A
:10A2B0000B48012100F002FA01231946094A084817
:10A2C00000F05AF9084B012220461A7002B010BD66
:10A2D000DC810300942F0020EC2F0020A99F0200B6
:10A2E000182E0020FFFF7F00902F00208AB130B48D
:10A2F000A1F101010368B1FA81F14FF0FF344FF091
:10A30000FF354909C3E90412C3E90245002030BC06
:10A3100070470720704700BF2DE9F04383B0054622
:10A32000002401A817460E468DF8044000F09AF864
:10A33000D5E90223013308BFB2F1FF3F07D09DF8F2
:10A34000040000F0B5F8204603B0BDE8F0831D48D6
:10A3500000F0EAF91C4B1D49D3E90023D1E900893B
:10A36000121843F100034B4508BF424525D392190B
:10A3700043F10003C5E902239DF8040000F098F8BA
:10A380002B69AF6103B12E61114801A900F048FFAC
:10A3900078B100244560047001A90D4800F06EFFFB
:10A3A0000028D1D0074800F0C3F9204603B0BDE82B
:10A3B000F083042003B0BDE8F08312F180726341A2
:10A3C000D5E700BF182E0020882F00200030002085
:10A3D000EC2F002030B583B00446002501A88DF88D
:10A3E000045000F03FF8D4E90223013308BFB2F172
:10A3F000FF3F1BD04FF0FF324FF0FF339DF80400BA
:10A40000C4E9022300F054F80F4801A900F008FF46
:10A4100048B101234460037001A90B4800F02EFFEE
:10A4200058B903B030BD042003B030BD9DF804001E
:10A4300000F03EF8284603B030BD044800F078F93B
:10A44000284603B030BD00BFEC2F0020182E00209E
:10A45000401A20F07F407047014800F065B900BF06
:10A46000182E002070B4EFF3108472B60D4B9A686A
:10A47000AAB90D490D4E01259D60D1F88050354097
:10A480001D60C1F88060D1F884505D604FF0FF33EB
:10A49000C1F88430027004B962B670BC7047012301
:10A4A0000370F8E704E4002000E100E0FC06FFBDD3
:10A4B000094B9A687AB170B910B4EFF3108172B693
:10A4C000064A1C6814605C685460986001B962B602
:10A4D0005DF8044B7047704704E4002000E100E0A1
:10A4E00070B41D4C43791D4E04EBC30546F8232080
:10A4F0002D7975BB03680A88C3F8082590F90430E4
:10A500008A78002B1DDB03F1604303F561435201A0
:10A51000D2B283F8002390F90430002B07DB1049F6
:10A5200003F01F0501225B09AA4041F8232043796B
:10A5300004EBC3020121117144F83300002070BC08
:10A540007047084903F00F0352011944D2B20A764A
:10A55000E1E7082070BC70470C3000201430002068
:10A5600000E100E0FCEC00E0036801221A607047A3
:10A57000036801225A607047F0B404684FF48035D4
:10A580008D40C4F80853066801F15004C6F84853DA
:10A59000A4000668A4B20027375182B03659046877
:10A5A000019601F5A87122F07F42019E44F8212016
:10A5B0000268C2F8445313B10368C3F8045302B0ED
:10A5C000F0BC70472DE9F04704464FF48036006830
:10A5D0008E40C0F848632068C0F80863206800EB2C
:10A5E00081058A46D0F80415D5F84005C5F8401510
:10A5F0000AF15005AD002768ADB24FF0000847F8EA
:10A60000058082B0401A7F59009720F07F400128D2
:10A6100022F07F479946009A41D02268D2F804552B
:10A62000C2F844637A1B22F07F42012A0AF5A8711E
:10A6300025D0226842F821702068D0F804557A1B92
:10A64000C9F1FF13013A03F57F4322F07F429342A1
:10A6500011D342B1C0F8446323680020C3F80463F7
:10A6600002B0BDE8F087013740F821702068D0F8CB
:10A6700004359D42EED00D2002B0BDE8F087206881
:10A680000D4B013740F8217043F001034FF4806017
:10A6900098472068D0F804359D42DBD0EBE7064AA6
:10A6A0004FF4806042F001029047226842F8058032
:10A6B00052590192019AB0E7F08103000268022327
:10A6C000C2F8443311B10268C2F80433704700BFC6
:10A6D0000368D3F8040100B97047002282B0C3F8C0
:10A6E0000421D3F804310193019B012002B070478B
:10A6F00002684FF4803303FA01F1C2F8481303688B
:10A70000C3F80813704700BF50318900036889B24D
:10A71000585800B9704700225A5082B05B580193D4
:10A72000019B012002B070470368D3F8040570470D
:10A7300090F90430002B09DB5A090548403203F038
:10A740001F03012101FA03F340F82230704700BFD4
:10A7500000E100E0024A034B10681B68184700BF85
:10A760000C30002014300020F0B543688C461BB13B
:10A77000324AD468A3423CD20023314EACF80030B8
:10A7800073684FF0010E03F580544FF6FF770833DE
:10A790009C420ED8BEF1020FACF800E006F11406A0
:10A7A0004AD0736803F5805408339C424FF0020E80
:10A7B000F0D91A680132EDD05A88033203EB8202D5
:10A7C0009442E7D39D88BD4209D01D883DB19D6864
:10A7D000691C04D00168A94205D01346D8E7944209
:10A7E000D8D91346E5E7174A43601389038101204E
:10A7F000F0BD12699342BFD813F00305BCD1114AD2
:10A80000048912899442B7D104689A689442B3D1FA
:10A810000B484268934203D902F58052934207D312
:10A820008269934208D902F58052934204D20125ED
:10A83000ACF800500120F0BD0020F0BD302F00200A
:10A84000543000203C3000202DE9F04F9C4E8BB05E
:10A8500004464FF6FF773568002D00F0CB802A784C
:10A86000531E052B00F29081DFE803F05C232303E5
:10A870000341002C40F0C5802B79012B00F0BC82F5
:10A88000022B00F0DA80002B00F08E820DF114080C
:10A89000C8E902440594C8F8104048F20E640694D2
:10A8A0002B78013B052B4DD8DFE803F075668579E1
:10A8B0009949B5F814A0002C40F05082DFF82082AE
:10A8C000A97D0AEB8A0308EB83034FEA8A091C89F6
:10A8D0005B6803EB8404062900F27984DFE811F059
:10A8E00027021402FA01E701C601AC019201002C13
:10A8F00040F08780DFF8ECC19CF80C30002B00F0B2
:10A90000C4809CF800308CF80C40013B062B00F210
:10A910003B81DFE813F01503EF0224010C0139013C
:10A92000D902E900002C40F011822B79032B00F2B0
:10A930009F80DFE813F05B017200500134010523B2
:10A940008DF814305F4C04F1100554F8043B404678
:10A9500003B19847A542F8D15B495C4800243460B4
:10A9600000F0CCFC5A48012100F012FD00287FF4D1
:10A9700072AF0BB0BDE8F08F01238DF814302B8936
:10A98000ADF82030AB88ADF82230EB680793002398
:10A990008DF82430D6E700238DF81430D2E7032356
:10A9A0008DF81430EB88ADF820302B89ADF82230CB
:10A9B000EB680793C6E702238DF814302B89ADF8B6
:10A9C0002030AB88ADF82230EB680793AB7DA3F164
:10A9D0000603B3FA83F35B098DF82430B2E704234E
:10A9E0008DF81430EB88ADF820300023ADF822301C
:10A9F0000793A7E73449354800F050FC054630601E
:10AA00002DE74FF406440DF114080023C8E9003384
:10AA1000C8E90233C8F8103041E7DFF8C48098F87D
:10AA20000030022B12D098F81430022B00F0A683CD
:10AA3000284B0121002219705A600DF114080024DE
:10AA4000C8E90344C8F80840059428E700239A00A1
:10AA50001A4408EB8203002059680090082308F884
:10AA600022001D4A1D4801F02BF9002881D03568CD
:10AA7000184A0DF114080023C8E902335360059306
:10AA8000C8F8103048F20D6409E79CF80030072B35
:10AA900009D8DFE813F0D802080008000C03F6021A
:10AAA00029002900D202013B062B6DD8DFE813F004
:10AAB0004802220257003F006C000C021C0000BF3D
:10AAC00050300020243000204C3000207C3000200A
:10AAD0008C30002034300020FC810300302F002017
:10AAE000543000203C300020B94BBA4A1968BA48AB
:10AAF00000230093CCF8043007238CF8003008239F
:10AB000001F0DEF80446002C3FF433AF35680DF158
:10AB1000140841F61D5200239442C8E90333C8F8D3
:10AB20000830059308BF1C463FF4B9AE14E3BCF8E7
:10AB30000230DFF8C08203EB830308EB8308D8F808
:10AB40000C30002B40F0498204228CF80020D8F809
:10AB50000410A148012201F0E5F80446D3E7DCF82F
:10AB600004209B485388848801689B4803339BB228
:10AB70009B0001EB84010024009403248CF8004026
:10AB800001F09EF80446BEE70DF114080023C8E961
:10AB90000333C8F80830059348F20E647FE68F4B04
:10ABA0008B4C5B88DFF84C822168002203EB830327
:10ABB0002A7108EB83000092A58808F823200581FC
:10ABC0004368236002254160854AA58008238248A6
:10ABD00001F076F849E77E4A7F4811680023022495
:10ABE0002B719480012201F09DF83EE7784B794A61
:10ABF0001968794801232B7100230093082301F081
:10AC00005FF832E72A4641F61D5409EB0A0108EBCA
:10AC10008101EB880889033303440B81D144EB881D
:10AC200008EB8908C3F57F43B8F80A10FD330B44DD
:10AC30001546A8F80A306AE76A4B6B4A1C885168C7
:10AC400065486A4A00234FF0060C85F816C0009349
:10AC5000042301F035F818BB04EB840408EB8408E6
:10AC6000012388F810300BB0BDE8F08F5E48AB6967
:10AC70005C4903604FF0000BC0F804B0FFF774FDAF
:10AC8000002800F06C820223AB7504235248CDF8F3
:10AC900000B02146EA1801F013F800283FF469AE2D
:10ACA000AB7D3268022B48F20D64B7D9ADE7EB8873
:10ACB0002A6949484FF0010C04F10C01002485F881
:10ACC00016C09B00009400F0FBFF0028E8D10BB0F9
:10ACD000BDE8F08F2B694048002B14BF03230123EC
:10ACE0000022AB7504F108010092042305F10C0267
:10ACF00000F0E6FF00283FF43CAEAB7D3268022B4B
:10AD000048F20D648AD980E7032A0CBF0523062385
:10AD10000022AB7530480092211D042305F1080282
:10AD200000F0CEFF0028BBD10BB0BDE8F08F0223AE
:10AD30000022AB750423009227482146EA1800F050
:10AD4000BFFF0028ACD10BB0BDE8F08F284B00222C
:10AD50005A604FF406440DF1140856E6AB7DDFF857
:10AD60009480022B08D90AEB8A0208EB8202EB8856
:10AD7000118903330B4413814FEA8A0909EB0A0155
:10AD8000EB8808EB8101C3F57F434A890DF1140874
:10AD9000FD3313440022C8E903224B81C8F8082080
:10ADA00005924FF406447AE502232B71CDE906445F
:10ADB0000DF11408EB68059340460DF11201FFF701
:10ADC000D3FC002840F0A08148F209641DE600BFD2
:10ADD0009030002004820300302F00203C300020FF
:10ADE000FC8103009830002018300020F881030017
:10ADF0003430002054300020BC4B1B78002B00F076
:10AE00009D81DFF8ECE2BEF80490B9F1010F12D891
:10AE1000DFF8F082039409EB890208EB82021378D1
:10AE200083B109F1010399B201299946AEF80430C2
:10AE300002F11402F3D9AE4808220021FCF776FA99
:10AE40003568FAE55368DEF8001003F5805C03F11D
:10AE5000080A002900F070814B88033301EB83015D
:10AE60008C4506D8039BCEF80030DAE79C45F9D92B
:10AE700019460B680133F5D04B88033301EB83038C
:10AE80009C45EFD38C88BC42F0D0B1F800B0BBF148
:10AE9000000FEBD088680130E8D0EB88CEF80010C6
:10AEA000A342D6D100230093924A9348042300F092
:10AEB00007FF002840F0808109EB890908EB890829
:10AEC000012388F8103054E5BCF80220DFF8348202
:10AED0009300134408EB830806200023D8F80410DD
:10AEE000864A00938CF800000823834800F0E8FEAF
:10AEF000044608E6BCF80200DFF80882DCF804200B
:10AF000000EB800308EB83034FEA800E596801F5DC
:10AF10008055002A40F0E48001F10802AA426DD376
:10AF2000704408EB8008D8F80C30002B55D1042071
:10AF30008CF800000122704800F0F4FE0446E2E5BF
:10AF40009CF80A3063B1DFF8BC81D8F80C300022DD
:10AF50008CF80A2023B998F81020002A40F032819A
:10AF60009CF80B3053B1DFF89C81D8F820300022D8
:10AF70008CF80B2013B998F8243073B90DF114082C
:10AF80000023C8E90333C8F808308CF80030ACF867
:10AF90000230CCF80430059381E4012318464FEACF
:10AFA000830E0EEB030108EB8101DCF804204968F5
:10AFB000ACF8020001F58055002A00F005815088A8
:10AFC000033002EB8002954200F2DA80734408EB12
:10AFD0008308D8F80C30002BA9D0494B4648196893
:10AFE00002229A8005228CF800200023012200F022
:10AFF00099FE044687E5AB4292D21A4613680133A4
:10B000008ED05388033302EB8303AB4288D89488F5
:10B01000BC42F0D01488002CEDD094680134EAD002
:10B02000CCF80420364C5388A58821683248033375
:10B030009BB29B0001EB85019DE501238CF800305C
:10B040009CF80A307EE7DFF8BC80BCF8081098F85E
:10B05000142098F80030B2FA82F252090131B3FAA2
:10B0600083F35B098CF80B20ACF808100022012157
:10B070008CF80A30ACF802208CF80C208CF8001008
:10B0800060E7BCF80220DFF87C801D4902EB8203F8
:10B0900008EB83030C6858688D885C6008600024A6
:10B0A00002201D811C74888002FA00F311E7BCF8AD
:10B0B0000200134CDFF84C80DCF80420A38855888C
:10B0C00000EB800108EB8101033349682B444FF00A
:10B0D000020901F58055A38000FA09FE8CF8009062
:10B0E0005388033302EB830218E700BF343000209B
:10B0F0009C300020F8810300302F0020FC810300E9
:10B1000090300020543000200699334A8B88EB8021
:10B110000B882B81314800940423BDF8124000F0C5
:10B12000CFFD38BB2E4B04EB840403EB84040123D6
:10B1300023740BB0BDE8F08F514691E60DF1140871
:10B14000214628480822FCF7F1F8C8E90244059492
:10B15000C8F8104048F201643568FFF7A0BB0DF154
:10B160001408C8E90200059048F20964C8F8100004
:10B17000FFF795BB356848F20D6446E4012366E4A9
:10B18000106801303FF422AF5088033002EB80009A
:10B190008542FFF41BAF9488BC4205D014881CB1D3
:10B1A000946801347FF43CAF85427FF60FAF0246CE
:10B1B00010680130E8D109E7356848F20D640DF1F7
:10B1C000140822E41846EAE601F10802FBE62A46E2
:10B1D00048F20E6419E500BFF8810300302F00200B
:10B1E000543000209C3000204068FFF72DBB00BF8A
:10B1F00099B110B4B2FBF3F403FB1424A4B244B924
:10B20000C0E9001484608281C38120465DF8044B4C
:10B21000704709205DF8044B70470E20704700BF4F
:10B2200030B482B050E8013F9DB2C489254484897E
:10B23000A54228BF2D1B0489A54202BFBFF32F8F53
:10B24000002207E0C5EA030540E80154002CE9D1DB
:10B250004FF001028DF803200193019B9DF803201C
:10B260000B602AB10B880068184402B030BC7047EC
:10B2700002F0FF03184602B030BC70470A884B88C2
:10B280009A4201D00020704750E8012FC2EA0242E2
:10B2900040E80123002BF7D10120704730B482B081
:10B2A00050E8023F1FFAA3F5C488A54202BFBFF3CE
:10B2B0002F8F00220DE0C48925448489A54228BF30
:10B2C0002D1BC3EA054540E80254002CE8D14FF09D
:10B2D00001028DF803200193019B9DF803200B6070
:10B2E0002AB14B880068184402B030BC704702F0A5
:10B2F000FF03184602B030BC704700BF0A884B8875
:10B300009A4201D00020704750E8022FC2EA224240
:10B3100040E80223002BF7D1012070474A0901239E
:10B3200001F01F0100EB820003FA01F100F014B8F4
:10B3300001F01F0201234909934000EB8100D9432A
:10B3400000F018B84B0901F01F0150F82300C84065
:10B3500000F00100704700BF10B4034653E8002F0F
:10B3600042EA010043E8000494F0000FF6D15DF8D2
:10B37000044B704710B4034653E8002F02EA010063
:10B3800043E8000494F0000FF6D15DF8044B7047D9
:10B3900010B4034653E8002FA2EB010043E8000479
:10B3A00094F0000FF6D15DF8044B704710B40346DB
:10B3B000012253E8000F40EA020143E8001494F030
:10B3C000000FF6D15DF8044B704700BF10B4034680
:10B3D000002253E8001F01EA020043E8000494F051
:10B3E000000FF6D15DF8044B704700BF2DE9F04720
:10B3F0008368D3F85434C3F340059B0788B046D420
:10B4000001293DD8254C264B264F1B1BA7FB0327A4
:10B41000172B4FEA171730D9DFF890A00646A94638
:10B420004FF064082268D4F808C013791068626885
:10B430000693ACEB000003EB8303ACEB0202A18AA2
:10B440000792C0B203EB830303900492009101358D
:10B450009B00CDF80490B3FBF2F308FB00F00593DA
:10B46000B0FBF2F02369029052460821304607F003
:10B4700067FDAF4204F11804D4D808B0BDE8F087E6
:10B48000094A022108B0BDE8F04707F059BD002283
:10B49000114608B0BDE8F04708F088BF2C8F0300C4
:10B4A0005C8F0300ABAAAAAA0C82030020820300CF
:10B4B000B8B130B4D0E90112521A0468D2B2531EA6
:10B4C0002160DBB242B101680A685C1E551C0D6048
:10B4D0001370E3B2FF2BF6D103680020187130BC63
:10B4E00070470E20704700BFF0B583B004460025BA
:10B4F0000DF107008DF80750FEF7B4FFD4E90031D5
:10B500001A688A4210D9511E19602168A3680F6811
:10B5100012F8015C0A79A68AE068DB1BDBB29A426A
:10B5200006FB050538BF0B719DF80700FEF7C0FF4D
:10B53000284603B0F0BD00BF30B5054683B00023F8
:10B540000DF107000C468DF80730FEF78BFF2A68D7
:10B550001368591C1160E968AA8A641AB4FBF2F4F2
:10B560001C709DF80700FEF7A3FF03B030BD00BFBD
:10B57000826842B110B50446436901680069984782
:10B580000023A36010BD70470EB400B582B00399CC
:10B5900021B104AB01AA019300F0ACF802B05DF850
:10B5A00004EB03B0704700BF2DE9F04F164683B09F
:10B5B000B142DDE90C920F4605469A46C0F09580EF
:10B5C0000B464FF00108B3FBF6F39E4208F1010869
:10B5D000F9D9D04538BFD04612F00103019302D10A
:10B5E000B9F1000F5ED1AA68012403E00AF1FF3A25
:10B5F00006FB04F4BAF1010FF8D8B7FBF4F39E424E
:10B60000F6D9DFF8ECA007E0B442B4FBF6F31AD3A6
:10B61000AA681C46B7FBF3F31AF803B0BBF10A0F94
:10B6200004FB137728D02B68511CA96003F802B0E3
:10B63000D5E901329A42E7D32846FFF799FFB4FBD8
:10B64000F6F3B442E4D2019B9BB1B9F1000F10D0E4
:10B650002024C84509F1FF390BD2AB682A68591C70
:10B66000A960D454D5E901329A4214D2B9F1000F3D
:10B67000EFD103B0BDE8F08F511C2B68A9604FF0EB
:10B680000D019954D5E901329A42CCD32846FFF7EF
:10B690006FFFAA68C7E72846FFF76AFFB9F1000FF6
:10B6A000D7D1E6E793071AD42024AA68C84502F147
:10B6B000010199D22B68A9609C54D5E901329A42C4
:10B6C00009F1FF3903D2B9F1000FEFD18CE7284619
:10B6D000FFF74EFFAA68B9F1000FE7D184E7BAF18E
:10B6E000000F0CBF30242024DFE74FF0010870E783
:10B6F0003C830300002900F054822DE9F04FDFF86D
:10B70000B8950C7885B0064690460D464FF00D0A68
:10B7100010E00A2CB36800F0AD803268591CB160AB
:10B72000D454D6E901329A4280F0A0802C78002CC3
:10B7300000F087800135002C00F08380252CE8D1B3
:10B74000294600270D4611F8012B2D2A00F088808C
:10B75000302A00F088802B2A7AD02A2A00F099809B
:10B76000A2F13003092B4FF000040BD804EB840442
:10B7700002EB440415F8012FA2F13003092BA4F1C8
:10B780003004F3D92E2A00F09080002301E015F850
:10B79000012F02F0FB016829F9D0252A00F07781FA
:10B7A000583AD1B2202947D8202A45D8DFE812F0EC
:10B7B0003501440044004400440044004400440077
:10B7C0004400440044004301130144004400440089
:10B7D0004400130144004400440044004400440079
:10B7E000D20044004400A2004400940044004400FD
:10B7F000350101209842024638BF1A460292002CB9
:10B8000040F05081B80740F16E81002B40F04E822D
:10B810001C46BBF1000FC0F20A827A0700F11A82BF
:10B8200007F00302022A00F0EA81CDE900475946F9
:10B830000A223046FFF7B8FE01352C78002C7FF441
:10B8400079AF337B002B40F01C8105B0BDE8F08F51
:10B850000D4611F8012B2D2A47F004077FF478AF2D
:10B8600047F001076EE747F002076BE73046FFF746
:10B870007FFE5BE73268591CB16002F803A0D6E98D
:10B8800001239342FFF449AF3046FFF771FEB368DE
:10B8900043E7D8F800301A1DC8F800206A781C6801
:10B8A0002E2A05F101057FF470AF6A78A2F130030A
:10B8B000092B05F101054FF000033FF66AAF03EBDA
:10B8C000830302EB430315F8012FA2F1300109298C
:10B8D000A3F13003F3D95CE7D8F80020111DC8F8B4
:10B8E000001011683046CDE900470A22FFF75CFEE0
:10B8F0000135A2E7D8F800301A1DC8F8002017F06B
:10B900000107D3F800B040F0F080BBF1000F03D086
:10B910005846FCF77DF90746BC4240F24381002CB3
:10B9200000F04081202205E0BC4200F03B81002C69
:10B9300000F03881B1683368481CB0605A54D6E9C9
:10B940000130984204F1FF34EED33046FFF710FE89
:10B950002022E9E7D8F80020131DC8F80030B368AA
:10B9600031681768581C3022B060CA54D6E90123E8
:10B97000934280F0EF803268581C7821B060D15437
:10B98000D6E901329A4280F0E0800F2F03D93B467E
:10B990001B090F2BFCD84FF0805406E00F2C4FEA08
:10B9A00014137FF649AFB2681C46B7FBF4F319F8DD
:10B9B00003B0BBF10A0F04FB137754D03368511C5A
:10B9C000B16003F802B0D6E901329A42E6D33046BC
:10B9D000FFF7CEFDE2E7D8F80020111DC8F80010EF
:10B9E000D2F800B08BEAEB72A2EBEB72092A7FF778
:10B9F00000AFDFF8C8C2012011466329ACFB02E2A8
:10BA000000F101004FEAD202F6DC9842024638BF4C
:10BA10001A460292002C45D1F4E6D8F80020111DF8
:10BA2000C8F8001011683046CDE900471022FFF732
:10BA3000BBFD013501E7D8F800301A1DC8F8002019
:10BA40001C78B3680A2C00F011813268591CB1606F
:10BA5000D454D6E901329A42FFF4EEAE3046FFF7F5
:10BA600087FD0135E9E63368511CB16003F802A097
:10BA7000D6E901329A42A1D33046FFF779FDB26888
:10BA80009CE7304605B0BDE8F04FFFF771BDB368E5
:10BA90003168581CB060CA54D6E901329A42DDD2EE
:10BAA0000135CAE6BBF1000F59DB7A0757D4B80756
:10BAB00002D5002B3FF4ADAEF9073FF5AAAE94B125
:10BAC00020220299A142BFF4A4AEB168481CB06024
:10BAD00030684254D6E90101814204F1FF3480F01C
:10BAE000D480002CEDD1002493E69BF80030002B8D
:10BAF00000F0E080B0685F46CBF101020A2B02EB58
:10BB0000070B3CD0411CB16031680B54D6E90130C1
:10BB1000984226D217F8013F002BEFD15C457FF603
:10BB20008BAE202702E05C453FF486AEB2683368F6
:10BB3000511CB1609F54D6E901329A4204F1FF349E
:10BB4000F1D33046FFF714FDEDE73046FFF710FD67
:10BB5000B2681AE73046FFF70BFDB3680BE7013C0C
:10BB6000A5E730460292FFF703FD17F8013F002BCF
:10BB7000D4D0029AB0680A2B02EB070BC2D1411C49
:10BB8000B160316801F800A0D6E901108842B9D34C
:10BB90003046CDE90232FFF7EBFCDDE90232B06856
:10BBA000B0E770479BF80040002C3FF445AE0A2CEC
:10BBB000B0680ED03368421CB2601C54D6E9013024
:10BBC000984214D21BF8014F002C3FF435AE0A2CDA
:10BBD000F0D13368421CB26003F800A0D6E901300E
:10BBE0009842E7D33046FFF7C3FCB068E2E730463F
:10BBF000FFF7BEFC1BF8014F002CD8D11CE6002B30
:10BC00007FF413AE8CB130220299A142BFF40DAE85
:10BC1000B168481CB06030684254D6E901018142E5
:10BC200004F1FF343BD2002CEED10024FDE5B168D5
:10BC30004A1CB26032682D205054D6E9012191424D
:10BC4000CBF1000BFFF4ECAD30460393FFF790FC13
:10BC5000039BE5E5B1684A1CB26032682B20505462
:10BC6000D6E901219142FFF4DBADEDE73268591CC2
:10BC7000B16002F803A0D6E901239342FFF4E5AED8
:10BC80003046FFF775FCB368DFE630460393FFF7F5
:10BC90006FFC039B2022002C7FF413AF23E7304678
:10BCA0000393FFF765FC039B3022BCE7F9073FF5E0
:10BCB000B0AD18E79B4631E73C830300CDCCCCCC3C
:10BCC00050B32DE9F0414AB3D0F800E0BEF1000FC7
:10BCD00026D01E46EBB14768D7F80480B3FBF8F7CF
:10BCE00008FB1737AFB942EA0105AD070ED1C568A9
:10BCF000A9420BD3046901F1FF3C6644A64205D872
:10BD0000DEF80C40A446BDE8F04160471020BDE8D5
:10BD1000F0810920BDE8F0810E2070470E20F6E783
:10BD20000820F4E700B3F0B5D0F800C0BCF1000F74
:10BD30001CD0BAB14768D7F800E00EF1FF370F42C8
:10BD40000ED1C768B9420BD304694D1E0EFB0255D4
:10BD5000A54205D8DCF81040A446BDE8F040604795
:10BD60001020F0BD0920F0BD0E2070470820F0BD66
:10BD700029DF704728DF7047034B187A0122B0FA99
:10BD800080F05A7440097047B430002030B5394D06
:10BD90002B7A87B0002B39D0374B1C6802232B72CB
:10BDA0002379002B3DD0012B24D022689368C3B1A6
:10BDB0000023CDE9033302930093A3680593032383
:10BDC00001932379002B48D0012B07D1E3686169E7
:10BDD00004911B03022102938DF8001093686846BA
:10BDE00098470023254926482B726B60FFF786FA97
:10BDF00007B030BDD4E903031844FFF7BBFF20B3FD
:10BE00001128D2D101232B7207B030BD1B491C4829
:10BE1000FFF744FA184B044618600028BED168604A
:10BE2000E6E7D4E90520121AB2F5805F28BF4FF487
:10BE30008052D4E903139208012A38BF0122014439
:10BE40001844FFF795FF0028DAD12B7C002BCFD1C7
:10BE50000146022000F016F8CAE72069E1680123D4
:10BE6000CDE902018DF80030636904939368684658
:10BE70009847B6E7B4300020CC300020C83000200E
:10BE8000A4300020831E012B3FD810B5334C237AF9
:10BE900086B0002B37D0022B31D103283AD0304B5B
:10BEA00000221B68E2601A79002A40D0012A26D1BC
:10BEB000D3E9042101328A421A6120D10020207284
:10BEC00019688A68BAB10022CDE903220292009271
:10BED0009A68019005921A79002A35D0012A07D173
:10BEE000DA685B6904931303022202938DF8002041
:10BEF0008B68684698471B491B48FFF7FFF9637C2E
:10BF000023B9FFF743FF06B010BD704705F0C6FD2B
:10BF100006B010BDE3680133082B01D8E360EEE7FB
:10BF20000F4B00221B68E26022720D20C8E7D3E9A4
:10BF30000512881AB0F5805F94BF121802F580527E
:10BF400091429A61DBD1B9E7012218698DF800208E
:10BF5000DA685B690493CDE90202C9E7B4300020D6
:10BF6000CC300020C8300020A430002000F0FD03B9
:10BF7000012B00D0704730B53B4DA0F10100B0FA65
:10BF800080F02B7A4009002287B028746A74002B55
:10BF90004AD0364B1C6802232B722379002B4ED0DB
:10BFA000012B07D1D4E903031844FFF7E3FE48B39C
:10BFB00011281BD0226893687BB10023CDE903339D
:10BFC00002930093A36805930323019323790BB392
:10BFD000012B0ED0936868469847002324492548D2
:10BFE0002B726B60FFF78AF907B030BD01232B720B
:10BFF000FAE7E368616904911B03022102938DF85B
:10C000000010E7E72B7C002BEED101460220FFF762
:10C0100039FFE9E72069E16801238DF800306369A1
:10C020000493CDE90201D5E711491248FFF736F92B
:10C030000E4B044618600028ADD16860D4E7D4E9FF
:10C040000520121AB2F5805F28BF4FF48052D4E960
:10C0500003139208012A38BF012201441844FFF754
:10C0600087FE0028A4D1CDE7B4300020CC300020DA
:10C07000C8300020A43000202DE9F041858A03312A
:10C08000043D4E198046B6FBF5F6FFF72DFAA0B336
:10C09000F6B24FF48073013E0446C580C0F80080BC
:10C0A00083802BD00346002508E06279AE4202F17E
:10C0B000010262713860C0F800801FD040461F4600
:10C0C000FFF712FA013503460028EED16779791E91
:10C0D00017D02246013399421268FBD1D2F8008072
:10C0E0005FB12668002501E03446366821460135F7
:10C0F0004046FFF721FAAF42F6D800242046BDE8BB
:10C10000F08120682146FFF717FAF6E7F8B546797F
:10C110000146701E13D00A4600230133984212686C
:10C12000FBD1176856B10D68002401E029462D683F
:10C1300001343846FFF700FAA642F7D8F8BDBDE84B
:10C14000F8400868FFF7F8B92DE9F8430546C688B6
:10C150004079144606FB00F2043A04EB030C1F1D61
:10C16000624538BFD41ABE428846B7FBF6F106FBDB
:10C17000117002D801392D68FCD1371AA74228BFA7
:10C1800027469CB14FF000090430E41B28443A468E
:10C1900008EB0901FCF71CFCA642B9442D683746A0
:10C1A0004FF0000028BF2746002CEDD1BDE8F883F2
:10C1B0002DE9F8430546C6884079144606FB00F28F
:10C1C000043A04EB030C1F1D624538BFD41ABE426B
:10C1D0008846B7FBF6F106FB117002D801392D68CD
:10C1E000FCD1371AA74228BF27469CB14FF000095F
:10C1F00004302918E41B3A4608EB0900FCF7E8FB79
:10C20000A642B9442D6837464FF0000028BF2746A4
:10C21000002CEDD1BDE8F88341DF7047064A074B9B
:10C2200010B5002414701C60BFF35F8F04490548EB
:10C2300000F020F9204610BDD8300020DC3000206E
:10C240004C830300D030002000B583B000230DF1F3
:10C2500007008DF80730FEF705F9F1EE103A23F0EC
:10C260009F03E1EE103ABFF35F8F0B4B4022C3F800
:10C2700084219DF80700FEF71BF905F01FFC28B983
:10C2800020BF40BF20BF03B05DF804FBFFF7C4FF31
:10C2900003B05DF804FB00BF00E100E0704700BFA1
:10C2A00082680023936082681361826853618268A8
:10C2B000D360826853608268136070472DE9F84F3D
:10C2C0000446806888461746FFF770F8002837D183
:10C2D000D4E90132116995683A6801330B445D1B5A
:10C2E000954228BF15463D60D4E90132926803F1BA
:10C2F000010A03EA0209AAEB090B5D45064613D8B9
:10C3000020682A4641464844FCF762FBA268396827
:10C3100093680B449360A3689A68DA60A068FFF79B
:10C3200055F83046BDE8F88F2068414648445A46E3
:10C33000A9EB0A094D44FCF74BFBD844B146DFE7B3
:10C3400011263046BDE8F88FF8B504460E4615466E
:10C3500013BB83689A685B69D71A1AD061680B406F
:10C360000A40934210D32A680131C91A8A4288BF11
:10C370002960226813443360A268296853690B441A
:10C38000536100273846F8BD2A68BA42F1D92F60B8
:10C39000EFE72F603846F8BD80680430FFF706F8F5
:10C3A00058B9A3689A685B69D71AD7D12F60A0687B
:10C3B0000430FFF70BF83846F8BD1127E2E700BF5D
:10C3C0002DE9F84304468068043089461746FEF795
:10C3D000EDFF002835D1A2683968936815695D1BA7
:10C3E0008D4228BF0D463D60D4E90132116996683F
:10C3F00019401E40B1422ABF0133761A5E1AB54277
:10C40000804614D823682A4619444846FCF7E0FAC7
:10C41000A268396813690B441361A3681A695A61E9
:10C42000A0680430FEF7D2FF4046BDE8F8832368D9
:10C43000484619443246FCF7CBFAAD1BB144002103
:10C44000E0E74FF011084046BDE8F88310B5846876
:10C450002269A3689B1A8B420AD311442161836825
:10C460001A695A6180680430FEF7B0FF002010BDE1
:10C47000042010BD01600B6843604A68934204BF0A
:10C4800000234360704700BF436843B1026891686E
:10C490000B4443605268934204BF002343607047DB
:10C4A00070B54468064620680D4618B908E024684F
:10C4B000206828B1B368294698470028F7D120683A
:10C4C0002860256070BD00BF4368186808B1026825
:10C4D0001A60704743681868704700BF436818685F
:10C4E00018B908E00346006828B18142FAD10A6809
:10C4F0001A6001207047704710B4814B1B68082BED
:10C5000021D0804AD2F8883043F47003C2F88830D2
:10C51000BFF34F8FBFF36F8F794B1B68082B00F071
:10C52000AA804FF01023D3F80022002AC0F2B68070
:10C53000D3F80432002BC0F2B180734B734A1A60F7
:10C540005DF8044B70474FF080414FF0805200205F
:10C55000C1F80C016E4BC1F81001C1F83805D2F8D2
:10C560000414C3F82015D2F80814C3F82415D2F81F
:10C570000C14C3F82815D2F81014C3F82C15D2F8EF
:10C580001414C3F83015D2F81814C3F83415D2F8BF
:10C590001C14C3F84015D2F82014C3F84415D2F87F
:10C5A0002414C3F84815D2F82814C3F84C15D2F84F
:10C5B0002C14C3F85015D2F83014C3F85415D2F81F
:10C5C0003414C3F86015D2F83814C3F86415D2F8DF
:10C5D0003C04C3F868054F49D2F84004C3F86C0521
:10C5E0000968D2F84424C3F87025052937D84A4B86
:10C5F0005B5C13B1494B4A4A1A604A4B5B5C63B1BE
:10C600003F4B49491B68434AFB20C1F81805082BDA
:10C6100011687FF476AF052921D8444B5B5C93B158
:10C620004348444B364C02681B682468394922F061
:10C630000F0203F00F031343082C096803607FF413
:10C6400060AF05290BD83C4B5B5C43B12C4B3B4A9C
:10C650001B684FF40071082B11607FF452AF4FF04C
:10C660008043D3F80024D2077FF54BAF6FF001026F
:10C67000C3F8002445E7274B1B68052B08D94FF06A
:10C6800010224FF08043D2F80822C3F8582548E71B
:10C690002B4AD35C002B3FF444AFF0E7294A012337
:10C6A000C2F80435D2F80034002BFBD04FF0102331
:10C6B0001221244AC3F80012D2F80034002BFBD018
:10C6C0004FF0102312211F4AC3F80412D2F800348D
:10C6D000002BFBD000231B49C2F80435D1F80034ED
:10C6E000002BFBD0BFF34F8F0649174BCA6802F4EB
:10C6F000E0621343CB60BFF34F8F00BFFDE700BF85
:10C700003001001000ED00E0202E00200090D0034A
:10C7100000C0004034010010608303008C560040CC
:10C72000488103006083030000F000406083030041
:10C73000E40E00405802001060830300409602405F
:10C740005883030000E001400400FA05074B1B5C1E
:10C750001F2B8ABF064A4FF0A04203F01F03D2F8F6
:10C760000405D840C04300F001007047688303000F
:10C7700000030050064B1A5C1F2A86BF054902F0D1
:10C780001F024FF0A04101239340C1F80C357047C0
:10C790006883030000030050064B1A5C1F2A86BF03
:10C7A000054902F01F024FF0A04101239340C1F858
:10C7B0000835704768830300000300504FF0A04322
:10C7C00010B44FF480404FF400544FF400414FF444
:10C7D0008032C3F80845C3F80805C3F80815C3F844
:10C7E00008255DF8044B70474FF0A04310B44FF498
:10C7F00080404FF400544FF400414FF48032C3F8AE
:10C800000C45C3F80C05C3F80C15C3F80C255DF8EE
:10C81000044B70470A4B185C1F288ABF09494FF028
:10C82000A04100F01F00D1F804350122824022EA25
:10C8300003001340C1F80805C1F80C35704700BF6C
:10C84000688303000003005010B568B90E4CA3685C
:10C85000012262703BB1D3E900230020A260984717
:10C86000A368002BF7D110BD0128FCD1064C236929
:10C87000A070002BF7D0D3E9002301202261984754
:10C880002369002BF7D110BDE030002070B910B53E
:10C89000074CA368012262703BB1D3E9002300205A
:10C8A000A2609847A368002BF7D110BD704700BF66
:10C8B000E030002030B5012883B004D0032821D017
:10C8C000B0B103B030BD294C00230DF107008DF845
:10C8D0000730FDF7C7FD23786BB3E3689DF80700C9
:10C8E00001330122E360A270FDF7E2FD03B030BD29
:10C8F0001F4B0122C3F88020BFF34F8FBFF36F8F10
:10C9000003B030BD194C00F0A1F800230DF1070071
:10C910008DF80730FDF7A6FDE368013BE360E368AF
:10C920001BB9144BD3F80054C5B19DF80700FDF7AF
:10C93000BFFD03B030BD10486360A3602361E360B6
:10C9400000F078F805F0BAF860B10A4A01232370C4
:10C95000D2F80024002AC0D0A370BEE700F0A0F8EF
:10C96000A570E2E700F072F8EFE700BFE0300020CA
:10C9700000E100E00000014049C8020038B50E4C5B
:10C98000237843B185250D4BD3F800340BB1012337
:10C99000A370284638BD0A486360A3602361E36042
:10C9A00000F048F8054605F089F810B1012323701E
:10C9B000E9E700F04BF8F9E7E03000200000014023
:10C9C00049C8020030B51A4DAB7883B004469BB11C
:10C9D00010B143680120984700230DF107008DF83E
:10C9E0000730FDF73FFDEB689DF807000133EB6072
:10C9F000FDF75EFD03B030BD03F0FF020DF107004F
:10CA00008DF80720FDF72EFD64B12A6942B19442EA
:10CA100008D0134601E09C4204D01B68002BFAD1D9
:10CA200022602C61EB68002BDDD100F021F8DAE701
:10CA3000E0300020044A137923B90121106091806D
:10CA40001846704785207047F4300020074B1A685D
:10CA5000D20704D4C02283F8002301221A604FF0C9
:10CA600080430122C3F81825704700BF00E100E0B1
:10CA700010B4094B094A0021196083B01B68019367
:10CA8000019C4FF0804102200123C1F80403136090
:10CA900003B05DF8044B70470401004008000040FB
:10CAA00010B40B4B0B494FF0804200200224C2F817
:10CAB000084383B018601B680193012301980B6041
:10CAC000D2F81834DB03FBD403B05DF8044B704795
:10CAD000040100400C00004010B5174B1A6882B0EA
